:100000000C9491020C94AE020C94AE020C94AE02CD
:100010000C94AE020C94AE020C94AE020C94AE02A0
:100020000C94AE020C94AE020C94AE020C94AE0290
:100030000C94AE020C94AE020C94AE020C94AE0280
:100040000C94FA080C94AE020C94AE020C94AE021E
:100050000C94AE020C94AE020C94AE020C94AE0260
:100060000C94AE020C94AE0204006E756C6C000031
:1000700001002D07004F626A656374400500486502
:100080006C6C6F07010E01110146036D018401873D
:10009000014E0300000000000000002C04CA0241D1
:1000A00002440433043303B103E5002C03A50358D1
:1000B00003F502EF029C019A038F0363032601E913
:1000C00001C0014E02DA013101AF025B025B01693E
:1000D000033E036A01E401CE02A102FD02370404DB
:1000E00001D101000006000059890134597D033413
:1000F00010115F0A013C0A015F0601599503340F94
:100100005F080160060101060907434328033E1CFE
:1001100001313C0A01295200025201030852000435
:1001200060AC03000000060002280128295C0000E2
:1001300060080102292D4201283D68005201053E58
:100140005A01434A4E29520006335A0128294E5279
:10015000010752010849023E4401600600022829B5
:10016000520105282C0A520108600701024D2C0A91
:10017000357C01283700002C0D520109283700007A
:100180004D5201093E88013260E702020003086A0D
:1001900001053101035B01E70200000009010228AB
:1001A000012829275A025C0000434A4E292733BF01
:1001B00001283700004E294E2E2F49023EAB016028
:1001C000090002280128445A0234434D2F5C0000E4
:1001D0006004000128370000275506000228370078
:1001E000004D2E5504000128240902013D6E003106
:1001F0004C4A4C26F9014C503059B90234022C308B
:100200004C2C0A54583F52010A2952010B52000249
:10021000314C2C0A48304C25F9014E2B310259B98A
:100220000234023D700052010B2952010B520002B0
:10023000242924E70202000307DA0106D10102E4BF
:1002400001050001280128435A025C0000600600F5
:100250000159330234283700000D240B03022837DC
:100260000000272937000027405A0232433B4357FA
:10027000044F2A27339A022A4F4F2837000027338A
:100280008B02283700004F2E3E9402293700004B86
:100290000449042E2F49033E7102282A5C000028DD
:1002A0002408000228593302344D1352010B24064E
:1002B0000002284D1252010B24E7020200040AA199
:1002C000020CAF020B5B02024E020300016006014A
:1002D00001280C3959B90234023D730052010B4D0B
:1002E00052010C52000224000000000102CE020460
:1002F0000001280B55FFE904E70200000006010198
:10030000283604002C08422B032831293702002804
:100310003A1B0329370200313E0B0329293702001B
:100320003702005C0200282C08055B600300003CDB
:100330000C0124FFEA04E70217000104FD02040097
:10034000012837020024E702060001023E0353039E
:100350000600004603060000040001280160E702D1
:10036000000000040001280A6006000238C0002CCA
:1003700020412578033E6C034D5DC600605E03009E
:1003800000010969038A03000000E702000000047D
:100390000001280E60A00300000004000128016095
:1003A000E70200000002000051370460E70200008D
:1003B00000050100043844004400535D4400384403
:1003C000004300535D44003845004400535D450040
:1003D0003845004300535D4500386E004300535DCF
:1003E0006E00387A004500535D7A00387A00440088
:1003F000535D7A00387A004300535D7A00387A0002
:100400002C0700535D7A00435DC100435DC5002C9D
:10041000105DC40038C1004700535DC10038C10001
:100420004600535DC100603F040000000500014428
:100430004C565502000060030000445E0E0160E768
:10044000020000000500013C0A013D7C005201034E
:1004500060E7020000000201020202040204023C02
:10046000083C083C083C083C083C083C083C083C6C
:10047000083C083C083C083C083C083C083C083C5C
:10048000083C083C083C083C083C083C083C083C4C
:10049000083C083C083C083C083C083C083C083C3C
:1004A000083C083C083C083607F607F60739071FE2
:1004B000071F071F07F6074107F607460755076A94
:1004C0000740074007ED076407ED07730773077FD1
:1004D000076A07DE076A0779078808890790079186
:1004E000079A07ED07A307AA07B107B807BF07C612
:1004F00007FD076A0708080F0816081F08280831B3
:1005000008390842085F086C083607750867077FD6
:10051000088B08270792089308AA08B108B108BBFE
:10052000080011241FBECFEFD8E0DEBFCDBF11E021
:10053000A0E0B1E0EAE0F3E102C005900D92A03046
:10054000B107D9F717E0A0E0B1E001C01D92AD3EC0
:10055000B107E1F70E94C3020C94B0020C940000B2
:10056000F8940C948309FB01DC0102C005900D9204
:1005700041505040D8F70895DC0101C06D934150BF
:100580005040E0F708950E94E20680E090E0089570
:1005900008950F931F93CF93DF93DC018B01149782
:1005A00012964D915C911397149681E0AD31B80786
:1005B00020F0E7E0A63EBE0708F147EE52E01EC07D
:1005C0009B01220F331F260F371FF9013596E40FC9
:1005D000F51FE4918E2F90E08017910739F4F9010F
:1005E0003696E40FF51F259134911DC06F5F7F4F44
:1005F0006C177D072CF3FA01459154914115510573
:1006000059F04C5F5F4F60E070E0FA018491445014
:100610005040C82FD0E0ECCFAB2B19F0A0E0B0E0F9
:10062000C4CF20E030E0C901DF91CF911F910F913D
:10063000089520911801309119012E5F3F4F30939A
:1006400019012093180122503040C9010895880FE4
:10065000991F20911A0130911B01280F391FC901E0
:100660000895DB01880F991FE0911A01F0911B0199
:10067000E80FF91F8D919C919183808308950E94CA
:100680001903FC01809114019091150191838083DD
:100690000895209118013091190122503040309373
:1006A000190120931801C90108950E944903FC0112
:1006B00080819181909315018093140108950E9487
:1006C0004903FC018081918108950E944903FC0146
:1006D000808191810895A0911801B0911901E09154
:1006E0001001F09111019F012A5F3F4F80911A0183
:1006F00090911B018217930791F4828193819093CB
:100700001B0180931A01848195819093110180933C
:100710001001E0910C01F0910D0195878487809183
:100720001A0190911B0190931901809318019E91D9
:100730008E919093170180931601FD019291829101
:1007400090931B0180931A010895AF92BF92CF92AC
:10075000DF92EF92FF920F931F93CF93DF93EC0101
:10076000FC0184918F3F41F4CE010196FC0125915B
:100770003491F90109959DC0E82EFF242296FE01CF
:1007800084912297A82EBB240E943F036501CC0CC4
:10079000DD1C00911801109119010C191D09E0913F
:1007A0001001F0911101808191810196880F991FAC
:1007B000E80FF91FC701880F991F800F911F8E172F
:1007C0009F0708F44DC0C70102960E9488067C016D
:1007D000E0911001F091110140911801509119011F
:1007E000208131812F5F3F4F220F331F2E0F3F1F7C
:1007F000241B350BCA0160E070E0A9010E94BC0215
:10080000D70113961C930E9312978091100190912B
:10081000110115969C938E931497F70120E030E018
:1008200008C0D8018D919D918D01958384832F5FA0
:100830003F4F32962A153B05A4F3F0921101E09246
:100840001001E0910C01F0910D01F586E48687011D
:100850000A5F1F4FC00ED11ED0921901C09218011D
:100860002196FE01849190E00196880F991FE091F6
:100870001801F0911901E80FF91FF0931901E093A5
:100880001801329780911A0190911B019183808306
:100890008091160190911701909315018093140196
:1008A00010931B0100931A012296D0931701C09355
:1008B0001601DF91CF911F910F91FF90EF90DF9084
:1008C000CF90BF90AF900895CF93DF93C091140164
:1008D000D0911501209719F420E030E005C00E9466
:1008E00094069E01280F391FC901DF91CF91089509
:1008F0001816190614F421E005C0892B11F422E022
:1009000001C024E0332727FD30958091EC0790E06B
:1009100028233923232B19F00E94940605C08091C7
:10092000160190911701029690931701809316017A
:100930000E9455030895EF92FF920F931F93CF9358
:10094000DF930E949406F82EE92E1091EC071770A1
:100950000E943F03153009F5EF2DFE2D05911491EE
:10096000B801685F7F4F83E392E00E94D505EC01F8
:10097000009741F10696998388830A5F1F4F1B8376
:100980000A83045010406F2D7E2DA8010E94B302EF
:10099000D0931501C093140115C0163031F4EAE567
:1009A000F4E0E49184E191E007C0E12FF0E0EC5A3B
:1009B000FB4FE49182E191E06F2D7E2D4E2F50E0B0
:1009C0000E94B302DF91CF911F910F91FF90EF90A2
:1009D000089508950E945F0320911401309115013C
:1009E000FC01358324830E94C2080895FC013497DA
:1009F000208131813F77C9010895CF92DF92EF9234
:100A0000FF920F931F93CF93DF937C0181E2E8164F
:100A100081E0F806F0F0E0EFEE16E7E0FE06C8F43D
:100A20008CEFC82E8FEFD82ECE0CDF1CF601008184
:100A3000118117FD0EC0C1E2D1E002C0C80FD91F5D
:100A4000CE010E94F604009721F0EC16FD06B1F7E6
:100A50000CC020E030E0C901DF91CF911F910F91D0
:100A6000FF90EF90DF90CF9008951068F60111830A
:100A7000008321E030E0EFCFCF92DF92EF92FF9240
:100A80000F931F93CF93DF93E0911001F091110129
:100A90003097A1F0409118015091190120813181C6
:100AA0002F5F3F4F220F331F2E0F3F1F241B350B8D
:100AB000CA0160E070E0A9010E94BC02C6E0D1E07A
:100AC000899199910E94FD0481E0C031D807C1F756
:100AD00080911401909115010E94FD0401E211E042
:100AE00026C004501040F801808191810C5F1F4F97
:100AF00097FF19C0EE24FF2411C0F801EE0DFF1D71
:100B000020813181C901EC010E94FD04892B19F07B
:100B1000C017D10758F00894E11CF11CC7010596D5
:100B20008C159D0550F3E801CC0DDD1D8E01C8012B
:100B30000E94F6046C010097A1F601E211E026C0C4
:100B40009CEFE92E9FEFF92EE00EF11EF701808158
:100B5000918197FD16C0E80102C0C20FD31FCE01DC
:100B60000E94F6049C01009731F0249788819981B6
:100B7000249697FFF2CF9E01201B310BF7011382C1
:100B80001282F70131832083020F131FC8010E94D4
:100B9000F6049C010097A1F6DF91CF911F910F9170
:100BA000FF90EF90DF90CF9008956F927F928F9299
:100BB0009F92AF92BF92CF92DF92EF92FF920F93EC
:100BC0001F93CF93DF934C01762E672E8091000107
:100BD00090910101843191051CF0AA24BB240AC024
:100BE00001969093010180930001C0E0D0E00E9443
:100BF0003C055E01072D162DF4E0EF2EF12CE00EE2
:100C0000F11EC1E2D1E0E4E0CE2ED12CCE0CDF1CEF
:100C10002DC024978A819B812496892B29F5EE1675
:100C2000FF0659F1EC15FD05F8F0AF014E195F090B
:100C30009E012D513140220F331F89EC96E08E1B0F
:100C40009F0B8217930720F4CE01C40FD51F05C058
:100C5000CF01841B950B8C0F9D1FFC013497518392
:100C600040831382128209C0CE0FDF1FCE010E9483
:100C7000F604FC01009769F60FC0209769F0CE01D9
:100C800060E070E0A8010E94BC02FE0134979382EC
:100C90008282F182E0820DC0C1E0D0E0AB2809F48D
:100CA000A6CF80E490E0672D762D0E94C802C0E0B8
:100CB000D0E0CE01DF91CF911F910F91FF90EF9087
:100CC000DF90CF90BF90AF909F908F907F906F906C
:100CD0000895CF93DF93EC01FB01EA5AFB4FE491B7
:100CE0008E2F90E08C9FB0018D9F700D9C9F700D9A
:100CF00011246E5F7F4F87EE92E00E94D505FC01C4
:100D0000009711F0D183C083CF01DF91CF91089577
:100D100068E070E00E9469060895FC0132966591D2
:100D200074910E94D5050895809116019091170144
:100D3000FC0125913491029690931701809316013E
:100D4000C9010895E0911601F0911701849131963F
:100D5000F0931701E093160190E0089589EC96E076
:100D600090931E0180931D0186E393E00E948D06FF
:100D700090930D0180930C018EE890E00E9488060C
:100D80009C0190931101809310012E5F3F4F30938F
:100D900019012093180122503040E0910C01F0918C
:100DA0000D0180910C0190910D0193838283E0915C
:100DB0000C01F0910D013587248784E091E00E94B9
:100DC000A50308952F923F924F925F926F927F9268
:100DD0008F929F92AF92BF92DF92EF92FF920F930A
:100DE0001F93CF93DF930E94AE06789464E1462E62
:100DF00061E0562E51E0252E312C42E0A42EB12C7C
:100E000033E0832E912C24E0622E712CE0911601A8
:100E1000F091170104910093EC073196F0931701BC
:100E2000E0931601C02FD0E0CC0FDD1FCE01815A18
:100E30009B4FFC01259134912F933F9308950E947D
:100E40003F038091EC0790E087709070E5C00091BF
:100E50001401109115010E94A206BC01C8010E9454
:100E600069069093150180931401D0CF0E946B0303
:100E7000CDCFE0911401F091150180819181F1CFE6
:100E800029C00E943F030E94A2063FC000911401A6
:100E9000109115010E945F03080F191FF80182814C
:100EA00080931401F2011182B1CFD09014010E94FD
:100EB00065037C010E945F038C010E9455030E0DA7
:100EC0001F1DF801D282A2CF0E943F039FCF0E9434
:100ED000A20604C0802F90E08770907064E171E0FA
:100EE0000E9431034CC10E946404FC01009729F662
:100EF0008DCF0E943F030E949406FC01BECF0E944A
:100F00003F030E949406FC018081992787FD9095FC
:100F1000A8CF0E949406909317018093160176CF74
:100F200075CF00911401109115010E946503080FFF
:100F3000191FCDC000911401109115010E94650385
:100F400008231923C4C00E943F0310921501109278
:100F500014015CCF0E943F033092150120921401CE
:100F600055CF0E943F03B0921501A09214014ECFBD
:100F70000E943F03909215018092140147CF0E9476
:100F80003F03709215016092140140CF80911401CB
:100F900090911501892B29F40E94650380E094E06B
:100FA000C9C00E94650360911401709115010E94EF
:100FB0004E09709315016093140128CF0E945F03BE
:100FC00040E050E0209114013091150128173907B5
:100FD00011F041E050E0CA010DC00E94650320916C
:100FE000140130911501821B930B04C080911401F0
:100FF000909115010E94780409CF0E94A2060E94D8
:101000002703FC0180819181019691838083FECE2C
:101010000E943F030E94A2060E9427036ECF0E94F7
:101020003F03E0911A01F0911B0127CF0E943F037B
:10103000E0911A01F0911B018281938112CF0E94ED
:101040003F03E0911A01F0911B018481958109CF42
:101050000E943F03E0911A01F0911B018681978164
:1010600000CF8091140190911501909581959F4F2B
:10107000F8CE0E94940620C0FE01E556FF4F8591F0
:1010800094911AC00E94A2068C010E94A2067C01C3
:101090000E943F03E0911801F09119013297F093FB
:1010A0001901E0931801000F111FE01BF10B808163
:1010B0009181B7010E94C9020E94A503A7CE0091A9
:1010C0001401109115010E946503082B192B109330
:1010D0001501009314019ACE0E94650360911401DA
:1010E000709115010E944E09BCCE0E9465030090CC
:1010F000140102C0880F991F0A94E2F7B2CE0E9431
:1011000065032091140130911501821B930BA9CE28
:101110000E949B047BCE0E943F030E9494060E9483
:101120008D069FCE2CC00E945F03EC01009739F41E
:1011300082E090E060E070E00E94C80267CE0E940A
:101140009406C80FD91F80911401909115019983BD
:10115000888315C00E949406FC018091140180834D
:101160000EC00E949406FC0180911401909115011B
:101170009183808304C00E943F030E946B030E94FE
:10118000550344CEEF92FF920F931F93E0910C0111
:10119000F0910D018281938190930D0180930C0158
:1011A000E0910C01F0910D01848195810397BCF0D1
:1011B000E0910C01F0910D0184819581069731F742
:1011C000E0910C01F0910D01E684F784008911890A
:1011D0000E941F096E157F0580079107B8F2E09104
:1011E0000C01F0910D01158214821F910F91FF9057
:1011F000EF9008951F920F920FB60F9211248F93C4
:101200009F93AF93BF938091020190910301A091AE
:101210000401B09105010196A11DB11D8093020149
:1012200090930301A0930401B0930501BF91AF9186
:101230009F918F910F900FBE0F901F9018952FB711
:10124000F8946091020170910301809104019091E2
:1012500005012FBF27E0660F771F881F991F2A956A
:10126000D1F72DE730E040E050E00E946109CA016B
:10127000B9010895AA1BBB1B51E107C0AA1FBB1FE0
:10128000A617B70710F0A61BB70B881F991F5A9512
:10129000A9F780959095BC01CD01089597FB092E83
:1012A00007260AD077FD04D0E5DF06D000201AF427
:1012B000709561957F4F0895F6F7909581959F4FB2
:1012C0000895A1E21A2EAA1BBB1BFD010DC0AA1F87
:1012D000BB1FEE1FFF1FA217B307E407F50720F09F
:1012E000A21BB30BE40BF50B661F771F881F991F1A
:1012F0001A9469F760957095809590959B01AC0163
:0A130000BD01CF010895F894FFCF5E
:00000001FF
